:100000000C9434000C9449000C9449000C94490061
:100010000C9449000C9449000C9449000C9449003C
:100020000C9449000C9449000C9449000C9449002C
:100030000C9449000C9449000C9449000C9449001C
:100040000C9449000C9449000C9449000C9449000C
:100050000C9449000C9449000C9449000C944900FC
:100060000C9449000C94490011241FBECFEFD8E036
:10007000DEBFCDBF11E0A0E0B1E0E2EBF2E002C0F4
:1000800005900D92A432B107D9F70E9426010C9475
:1000900057010C940000E0ECF0E0808182608083E6
:1000A0001092C50080E18093C400E2ECF0E0808112
:1000B000808380818083808180838081866080834B
:1000C000E1ECF0E080818861808308959091C00028
:1000D00095FFFCCF8093C60008958091C00087FFF4
:1000E000FCCF8091C6000895CF93DF93EC018991F6
:1000F000882319F00E946600FACFDF91CF9108950E
:10010000CF93C82FE82FE295EF70F0E0E050FF4F5B
:1001100080810E946600CF70EC2FF0E0E050FF4F2E
:100120008081CF910C9466000F931F93CF93DF9340
:10013000C0E0D0E0082F10E0F8010C2E02C0F595C9
:10014000E7950A94E2F7E170FF27EF5EFE4F8081AA
:100150000E9466002196C830D10571F7DF91CF91DA
:100160001F910F910895CF92DF92EF92FF920F931C
:100170001F93CF93DF932AE0C22ED12CE12CF12CD8
:100180006A3071058105910560F480E3860FDF9187
:10019000CF911F910F91FF90EF90DF90CF900C9433
:1001A0006600A70196010E9435018B01D82FC92F47
:1001B000CA01B9010E94B300B8018D2F9C2FE0CF76
:1001C000CF93DF93EC0184E191E00E947400CE01B3
:1001D0000E9474008DE191E0DF91CF910C94740046
:1001E000CF92DF92EF92FF921F93CF93DF937C0128
:1001F0006B01C0E0D0E00E946D00182F8D30B1F08F
:100200008F3741F4209771F080E291E00E947400F2
:10021000219708C0CC15DD0528F4F701EC0FFD1F70
:1002200080832196812F0E946600E5CFCE0DDF1DD1
:1002300018828DE191E00E947400C701DF91CF9197
:100240001F91FF90EF90DF90CF900895259A90E254
:1002500085B1892785B92FEF39E688E121503040F3
:100260008040E1F700C00000F3CFA1E21A2EAA1BE4
:10027000BB1BFD010DC0AA1FBB1FEE1FFF1FA21756
:10028000B307E407F50720F0A21BB30BE40BF50B53
:10029000661F771F881F991F1A9469F760957095DC
:1002A000809590959B01AC01BD01CF010895F89414
:0202B000FFCF7E
:1002B200303132333435363738394142434445469A
:1002C200003031005B44454255475D20000D0A0075
:0402D20008200800F8
:00000001FF
